:020000040100F9
:100000000B6000066F008001130000001300000069
:10001000EF0040110B0000046F000000930000008F
:10002000176100FF130101FD93010000130200009E
:100030009302000013030000930300001304000068
:100040009304000013050000930500001306000050
:100050009306000013070000930700001308000038
:10006000930800001309000093090000130A000020
:10007000930A0000130B0000930B0000130C000008
:10008000930C0000130D0000930D0000130E0000F0
:10009000930E0000130F0000930F000017050000DF
:1000A0001305450A930500001306000063DCC50034
:1000B0008326050023A0D500130545009385450040
:1000C000E3C8C5FE13050000930540006358B50062
:1000D0002320050013054500E34CB5FEEF0080002A
:1000E0006F000000130101FF2326810013040101AA
:1000F00083270000938617002320D00037071000C5
:100100001307F7FFE396E7FEB707008003A7070092
:10011000B70700801347170023A0E7002320000043
:100120006FF01FFD130101FF23268100130401015D
:10013000B70700801307100023A0E7006F0000003E
:0400000501000000F6
:00000001FF
